:020000040800F2
:1000000000280020A1160008D9150008DF150008F7
:10001000E5150008EB150008F115000800000000C8
:10002000000000000000000000000000F7150008BC
:1000300003160008000000000F1600081B16000839
:10004000E9160008E9160008E9160008E916000894
:10005000E9160008E9160008E91600082716000846
:10006000351600084316000851160008E916000866
:10007000E9160008E9160008E9160008E916000864
:10008000E9160008E9160008E9160008E916000854
:10009000E9160008E9160008E91600085F160008CE
:1000A000E9160008E9160008E9160008E916000834
:1000B0006D1600088116000800000000E91600080F
:1000C000E91600080000000000000000E916000822
:1000D00000000000E9160008E91600080000000012
:1000E000E9160008E9160008E916000800000000FB
:1000F0000000000000000000000000000000000000
:0C01000000000000000000005FF808F1A3
:1001100010B5054C237833B9044B13B10448AFF341
:1001200000800123237010BD3C000020000000006F
:10013000B438000808B5034B1BB103490348AFF3BB
:10014000008008BD0000000040000020B438000816
:1001500070B54FF0FF0C4CF4E06C1CEA11541DBF5D
:100160001CEA135594EA0C0F95EA0C0F00F0DEF828
:100170002C4481EA030621EA4C5123EA4C5350EA0D
:10018000013518BF52EA033541F4801143F480135E
:1001900038D0A0FB02CE4FF00005E1FB02E506F0EF
:1001A0000042E0FB03E54FF00006E1FB03569CF044
:1001B000000F18BF4EF0010EA4F1FF04B6F5007F4A
:1001C00064F5407404D25FEA4E0E6D4146EB0606BC
:1001D00042EAC62141EA55514FEAC52040EA5E5045
:1001E0004FEACE2EB4F1FD0C88BFBCF5E06F1ED8EF
:1001F000BEF1004F08BF5FEA500E50F1000041EB26
:10020000045170BD06F0004646EA010140EA0200D2
:1002100081EA0301B4EB5C04C2BFD4EB0C0541EAF4
:10022000045170BD41F480114FF0000E013C00F309
:10023000AB8014F1360FDEBF002001F0004170BD2D
:10024000C4F10004203C35DA0C341BDC04F1140446
:10025000C4F1200500FA05F320FA04F001FA05F2D2
:1002600040EA020001F0004221F0004110EBD3709F
:1002700021FA04F642EB06015EEA430E08BF20EACB
:10028000D37070BDC4F10C04C4F1200500FA04F36E
:1002900020FA05F001FA04F240EA020001F0004100
:1002A00010EBD37041F100015EEA430E08BF20EA73
:1002B000D37070BDC4F1200500FA05F24EEA020EBB
:1002C00020FA04F301FA05F243EA020321FA04F0EA
:1002D00001F0004121FA04F220EA020000EBD370A1
:1002E0005EEA430E08BF20EAD37070BD94F0000FA1
:1002F0000FD101F00046400041EB010111F4801FD5
:1003000008BF013CF7D041EA060195F0000F18BF85
:10031000704703F00046520043EB030313F4801FC1
:1003200008BF013DF7D043EA0603704794EA0C0F7B
:100330000CEA135518BF95EA0C0F0CD050EA410691
:1003400018BF52EA4306D1D181EA030101F000410E
:100350004FF0000070BD50EA410606BF1046194636
:1003600052EA430619D094EA0C0F02D150EA013642
:1003700013D195EA0C0F05D152EA03361CBF104683
:1003800019460AD181EA030101F0004141F0FE4122
:1003900041F470014FF0000070BD41F0FE4141F4A6
:1003A000780170BD81F0004102E000BF83F000439E
:1003B00030B54FEA41044FEA430594EA050F08BF00
:1003C00090EA020F1FBF54EA000C55EA020C7FEAC4
:1003D000645C7FEA655C00F0E2804FEA5454D4EB41
:1003E0005555B8BF6D420CDD2C4480EA020281EA0B
:1003F000030382EA000083EA010180EA020281EA43
:100400000303362D88BF30BD11F0004F4FEA013194
:100410004FF4801C4CEA113102D0404261EB4101A3
:1004200013F0004F4FEA03334CEA133302D0524229
:1004300063EB430394EA050F00F0A780A4F10104E5
:10044000D5F1200E0DDB02FA0EFC22FA05F280181F
:1004500041F1000103FA0EF2801843FA05F3594105
:100460000EE0A5F120050EF1200E012A03FA0EFC84
:1004700028BF4CF0020C43FA05F3C01851EBE371AE
:1004800001F0004507D54FF0000EDCF1000C7EEBCB
:1004900000006EEB0101B1F5801F1BD3B1F5001F09
:1004A0000CD349085FEA30004FEA3C0C04F1010428
:1004B0004FEA445212F5800F80F09A80BCF1004F51
:1004C00008BF5FEA500C50F1000041EB045141EAD3
:1004D000050130BD5FEA4C0C404141EB0101013C9C
:1004E00028BFB1F5801FE9D291F0000F04BF01468B
:1004F0000020B1FA81F308BF2033A3F10B03B3F15D
:1005000020020CDA0C3208DD02F1140CC2F10C02EC
:1005100001FA0CF021FA02F10CE002F11402D8BF4A
:10052000C2F1200C01FA02F120FA0CFCDCBF41EA16
:100530000C019040E41AA2BF01EB0451294330BDE5
:100540006FEA04041F3C1CDA0C340EDC04F11404C2
:10055000C4F1200220FA04F001FA02F340EA030099
:1005600021FA04F345EA030130BDC4F10C04C4F1DF
:10057000200220FA02F001FA04F340EA03002946BF
:1005800030BD21FA04F0294630BD94F0000F83F409
:10059000801306BF81F480110134013D4EE77FEAEC
:1005A000645C18BF7FEA655C29D094EA050F08BF38
:1005B00090EA020F05D054EA000C04BF1946104619
:1005C00030BD91EA030F1EBF0021002030BD5FEA5D
:1005D000545C05D14000494128BF41F0004130BD85
:1005E00014F580043CBF01F5801130BD01F00045D9
:1005F00045F0FE4141F470014FF0000030BD7FEA4C
:10060000645C1ABF194610467FEA655C1CBF0B4646
:10061000024650EA013406BF52EA033591EA030F5D
:1006200041F4002130BD00BF90F0000F04BF002155
:10063000704730B54FF4806404F132044FF0000588
:100640004FF0000150E700BF90F0000F04BF002101
:10065000704730B54FF4806404F1320410F0004567
:1006600048BF40424FF000013EE700BF42004FEA62
:10067000E2014FEA31014FEA02701FBF12F07F43DF
:1006800093F07F4F81F06051704732F07F4208BF96
:10069000704793F07F4F04BF41F40021704730B59D
:1006A0004FF4607401F0004521F000411CE700BFE9
:1006B00050EA010208BF704730B54FF000050AE06C
:1006C00050EA010208BF704730B511F0004502D56D
:1006D000404261EB41014FF4806404F132045FEA6F
:1006E000915C3FF4D8AE4FF003025FEADC0C18BF18
:1006F00003325FEADC0C18BF033202EBDC02C2F10A
:10070000200300FA03FC20FA02F001FA03FE40EA9B
:100710000E0021FA02F11444BDE600BF4FEA410287
:1007200012F5001215D211D56FF47873B3EB625243
:1007300012D94FEAC12343F0004343EA505311F06A
:10074000004F23FA02F018BF404270474FF00000FC
:10075000704750EA013005D111F0004008BF6FF03A
:10076000004070474FF00000704700BF80B489B070
:1007700000AFF860B9607A60FB68FB61FB68BB6141
:1007800000237B61FB699B007A6813441B68BA688D
:100790009A4202D1FB697B6124E0FB69013BFB616A
:1007A000BB690133BB61FB69002B01DA0923FB61E3
:1007B000BB69092B01DD0023BB61FB699B007A68E3
:1007C00013441B68BA689A4202D1FB697B6109E055
:1007D000BB699B007A6813441B68BA689A42D1D1FE
:1007E000BB697B617B6918462437BD4680BC704776
:1007F00080B485B000AF786039600023FB600CE006
:10080000FB689B003A6813441B687A689A4201D1DE
:10081000002306E0FB680133FB60FB68082BEFDD7B
:10082000012318461437BD4680BC704780B485B09C
:1008300000AF786039607A683B68D31A03F10A0226
:10084000144B83FB02139910D317C91A0B469B0054
:100850000B445B00D31AFB603A687B68D31A03F140
:100860000A020C4B83FB02139910D317C91A0B46CB
:100870009B000B445B00D31ABB60BA68FB689A42CA
:1008800001DD012300E0002318461437BD4680BC7B
:10089000704700BF6766666680B582B000AFC7E983
:1008A000000107A3D3E90023D7E90001FFF750FCBB
:1008B00002460B46104619460837BD4680BD00BFAC
:1008C0006666666666664A3F80B582B000AFC7E975
:1008D00000014FF00002064BD7E90001FFF738FC9A
:1008E00002460B46104619460837BD4680BD00BF7C
:1008F0000000594080B582B000AF786039603B6835
:10090000012B03D03B68022B19D031E001220A21D0
:10091000194801F0DBFD40F6B93000F049FF7B6873
:10092000DBB21A460421144801F0D0FD012000F08A
:100930003FFF00220221104801F0C8FD18E001220B
:1009400050210D4801F0C2FD40F6B93000F030FFF3
:100950007B68DBB21A462021074801F0B7FD012071
:1009600000F026FF00221021034801F0AFFD00BF78
:1009700000BF0837BD4680BD0008014080B582B089
:1009800000AF78607B68012B03D07B68022B06D018
:100990000BE000220E21074801F098FD05E000223F
:1009A0007021044801F092FD00BF00BF0837BD462A
:1009B00080BD00BF0008014080B582B000AF786004
:1009C00039607B68012B03D07B68022B1BD035E09C
:1009D000002202211B4801F079FD012000F0E8FE11
:1009E00001220221174801F071FD174B1B680133EA
:1009F000154A1360012000F0DBFE0122042111489A
:100A000001F064FD1AE0002210210E4801F05EFDA5
:100A1000012000F0CDFE012210210A4801F056FD10
:100A20000A4B1B680133094A1360012000F0C0FE25
:100A300001222021034801F049FD00BF00BF083713
:100A4000BD4680BD0008014028010020240100208F
:100A500080B582B000AF0346FB80FB88023B1E2BB3
:100A600054D801A252F823F0E50A00080D0B000843
:100A7000ED0A00080D0B00080D0B00080D0B000817
:100A8000F50A00080D0B00080D0B00080D0B0008FF
:100A90000D0B00080D0B00080D0B00080D0B0008D6
:100AA000FD0A00080D0B00080D0B00080D0B0008D7
:100AB0000D0B00080D0B00080D0B00080D0B0008B6
:100AC0000D0B00080D0B00080D0B00080D0B0008A6
:100AD0000D0B00080D0B00080D0B00080D0B000896
:100AE000050B0008134B00221A600FE0114B012286
:100AF0001A600BE00F4B02221A6007E00D4B032235
:100B00001A6003E00B4B04221A6000BF094B1B68FC
:100B100009491846FFF76CFE0346002B06D0074B29
:100B20001B78002B02D1054B01221A7000BF083739
:100B3000BD4680BD1C0100200400002018010020DB
:100B400080B582B000AF78607B68664A934240F01F
:100B5000B480654B1B78042B00F2C08001A252F8D0
:100B600023F000BF790B0008B90B00080F0C000838
:100B70004D0C00088B0C000802215C4801F0BEFC03
:100B80005B4B1B6801335A4A1360594B1B68002B9F
:100B900003F00103B8BF5B42012B04D1554B1B6826
:100BA0000133544A1360534B1B68C82B40F08D80AF
:100BB000504B00221A6088E002214C4801F09EFC54
:100BC0004B4B1B6801334A4A13604B4B1B68002B8D
:100BD0000ED0474B1B68002B03F00103B8BF5B42EC
:100BE000012B74D1434B1B680133424A13606EE002
:100BF0003F4B1B68002B03F00103B8BF5B42012B86
:100C000065D13C4B1B68013B3A4A13605FE002210F
:100C1000364801F073FC364B1B680133344A1360CD
:100C2000334B1B68002B03F00103B8BF5B42012B61
:100C300004D1304B1B6801332E4A13602D4B1B68C7
:100C4000C82B46D12B4B00221A6042E002212748D4
:100C500001F054FC264B1B680133254A1360244BDA
:100C60001B68002B03F00103B8BF5B42012B04D1CA
:100C7000204B1B68013B1F4A13601E4B1B68002B57
:100C800029DA1C4BC7221A6025E01021174801F011
:100C900035FC174B1B680133154A1360144B1B6856
:100CA000002B03F00103B8BF5B42012B15D1134B9E
:100CB0001B680133114A13600FE07B68104A9342AE
:100CC0000CD1104B01221A6008E000BF06E000BF03
:100CD00004E000BF02E000BF00E000BF00BF083733
:100CE000BD4680BD88000020190100200008014099
:100CF0002C010020280100202C00002024010020CD
:100D0000D00000203001002080B584B000AF354B0A
:100D10001B68002B0FD1344B00221A7001210120D7
:100D2000FFF7E8FD314802F0D3F9314802F0D0F97D
:100D30002C4B01221A602F4B1B68002B4DD02E48E4
:100D400000F032FE2C4800F0E1FF034603F00203FE
:100D5000002B26D1284800F0D5FE0346BB60B868BA
:100D6000FFF772FC02460B4610461946FFF794FD4A
:100D700002460B4610461946FFF7D0FC03467B603F
:100D80007868FFF761FC02460B4610461946FFF7EC
:100D90009BFD02460B4610461946FFF7BFFC034673
:100DA000FB60164B1B68FA689A4213DD0F4802F08D
:100DB000DBF90F4802F0D8F9114B00221A6001202C
:100DC000FFF7DCFD0F4B02221A70064B00221A605F
:100DD0000023FB60074B00221A6000BF1037BD469E
:100DE00080BD00BF200100201901002088000020E4
:100DF000D00000203001002058000020000000201A
:100E00002C0100201801002080B500AF204B1B688A
:100E1000002B1BD11F4B01221A701F4B1B68642B28
:100E200007DD01210120FFF765FD1C4B01221A603F
:100E300006E000210120FFF75DFD184B00221A603B
:100E4000174802F045F9124B01221A60124B1A683A
:100E5000144B83FB02139911D317CB1AC82101FB42
:100E600003F3D31A002B11D10D4802F07DF90120B4
:100E7000FFF784FD064B00221A600B4B00221A601C
:100E8000054B00221A60094B03221A7000BF80BD77
:100E90002001002019010020280100202C00002042
:100EA000880000201F85EB512C0100201801002034
:100EB00080B500AF3A4B1B68002B44D1394B1B68FF
:100EC000394A82FB0312D210DB17D31A374A136058
:100ED000364B1B68364A1168364A1846FFF746FCFF
:100EE0000346354A1360314B1A68334B1B689A42EC
:100EF00003D1324B04221A7025E02C4B1B682E4A7A
:100F0000126811461846FFF791FC0346002B0AD0E1
:100F100000210120FFF7EEFC294B00221A60294B2B
:100F200003221A7009E001210120FFF7E3FC244BA2
:100F300001221A60234B02221A70234802F0C8F8DB
:100F4000174B01221A60174B1B68174A82FB0312CA
:100F5000D210DB17D21A184B1B689A421DD1114BC5
:100F60001968114B83FB0123DA10CB17D21A1346F1
:100F70009B0013449B00CA1A002A0ED1124802F0AB
:100F8000F3F80120FFF7FAFC054B00221A600F4B23
:100F900000221A60094B04221A7000BF80BD00BFF6
:100FA00020010020280100206766666638010020C5
:100FB0001C01002004000020340100201801002042
:100FC0002C00002019010020880000202C010020A6
:100FD00080B500AF314B1B68002B0CD1304B042285
:100FE0001A7002210120FFF785FC2E4802F070F8EC
:100FF0002A4B01221A602C4B1B680A2B24D129484A
:1010000002F0B2F800210220FFF7D6FC264B1B6845
:10101000013B254A1360254B00221A60214802F04B
:1010200057F8234B01221A60224B1B6822491846AD
:10103000FFF7DEFB0346002B03D0204B03221A7080
:1010400002E01E4B00221A70194B1B68002B22D0A5
:10105000154B1B68002B1ED1124802F085F80F4B70
:1010600000221A600220FFF789FC104B00221A6050
:101070000F4B00221A600F4B1B680F491846FFF7F1
:10108000B7FB0346002B03D00C4B03221A7002E07F
:101090000A4B00221A7000BF80BD00BF2001002053
:1010A0001901002088000020240100202C010020CC
:1010B0003C0100201C010020040000201801002039
:1010C00080B500AF00F012FB00F02EF800F05EF9E2
:1010D00000F084F800F0C0F800F00AF9104800F0C1
:1010E000BDFE104B1B78042BFBD801A252F823F055
:1010F000E3100008051100080B1100081111000889
:1011000017110008FFF700FE09E0FFF77DFE06E07B
:10111000FFF7CEFE03E0FFF75BFF00BFE1E7E0E78C
:10112000580000201801002080B594B000AF07F1EE
:10113000280328220021184602F090FB07F114032F
:1011400000221A605A609A60DA601A613B1D002220
:101150001A605A609A60DA600123BB624FF48033F0
:10116000FB6200233B630123BB6302237B644FF4D8
:101170008033BB644FF40023FB6407F12803184657
:1011800001F0EEF90346002B01D000F081F90F23A6
:101190007B610223BB610023FB6100233B620023D0
:1011A0007B6207F114030121184601F05BFC034642
:1011B000002B01D000F06CF902237B604FF48043D8
:1011C000FB603B1D184601F0C7FD0346002B01D014
:1011D00000F05EF900BF5037BD4680BD80B584B0D9
:1011E00000AF3B1D00221A605A609A60184B194AE2
:1011F0001A60174B00229A60154B00221A73144B89
:1012000000221A75124B4FF46022DA61104B002253
:101210005A600F4B01221A610D4800F0EDFA0346A7
:10122000002B01D000F034F908237B600123BB6060
:101230000023FB603B1D1946054800F06FFC034688
:10124000002B01D000F024F900BF1037BD4680BD4F
:10125000580000200024014080B586B000AF07F19F
:10126000080300221A605A609A60DA603B46002246
:101270001A605A601D4B4FF080421A601B4B40228F
:101280005A601A4B00229A60184B0122DA60174B01
:1012900000221A61154B80229A61144801F0C8FEA1
:1012A0000346002B01D000F0F3F84FF48053BB60ED
:1012B00007F1080319460D4802F08CF80346002B8D
:1012C00001D000F0E5F800233B6000237B603B4643
:1012D0001946064802F058FA0346002B01D000F0E8
:1012E000D7F800BF1837BD4680BD00BF880000207A
:1012F00080B586B000AF07F1080300221A605A607B
:101300009A60DA603B4600221A605A601D4B1E4A02
:101310001A601C4B42F210725A601A4B00229A60FB
:10132000184B4FF4C852DA60164B00221A61154B65
:1013300080229A61134801F07BFE0346002B01D006
:1013400000F0A6F84FF48053BB6007F1080319467C
:101350000C4802F03FF80346002B01D000F098F84B
:1013600000233B6000237B603B461946054802F0A2
:101370000BFA0346002B01D000F08AF800BF1837A3
:10138000BD4680BDD00000200004004080B588B07C
:1013900000AF07F1100300221A605A609A60DA6009
:1013A000374B9B69364A43F020039361344B9B696A
:1013B00003F02003FB60FB68314B9B69304A43F02C
:1013C000040393612E4B9B6903F00403BB60BB686D
:1013D0002B4B9B692A4A43F008039361284B9B6976
:1013E00003F008037B607B6800227E21254801F022
:1013F0006DF87E233B6101237B610023BB610223E7
:10140000FB6107F1100319461E4800F0E3FE3E237E
:101410003B611D4B7B610023BB6107F11003194643
:101420001A4800F0D7FE00220021072000F09BFEA2
:10143000072000F0B4FE00220021082000F093FEF7
:10144000082000F0ACFE00220021092000F08BFEF5
:10145000092000F0A4FE002200210A2000F083FEF3
:101460000A2000F09CFE00220021172000F07BFEE5
:10147000172000F094FE00BF2037BD4680BD00BF9E
:10148000001002400008014000001110000C014053
:1014900080B400AF72B600BFFEE7000080B483B036
:1014A00000AF0E4B9B690D4A43F0010393610B4B58
:1014B0009B6903F001037B607B68084BDB69074A8B
:1014C00043F08053D361054BDB6903F080533B60ED
:1014D0003B6800BF0C37BD4680BC7047001002401F
:1014E00080B588B000AF786007F1100300221A6061
:1014F0005A609A60DA607B681B68144A934221D173
:10150000134B9B69124A43F400739361104B9B6920
:1015100003F40073FB60FB680D4B9B690C4A43F0BE
:10152000080393610A4B9B6903F00803BB60BB6827
:1015300001233B6103237B6107F110031946054832
:1015400000F048FE00BF2037BD4680BD00240140AA
:1015500000100240000C014080B584B000AF7860FC
:101560007B681B68B3F1804F14D1194BDB69184AB3
:1015700043F00103D361164BDB6903F00103FB6009
:10158000FB68002200211C2000F0EDFD1C2000F073
:1015900006FE18E07B681B680E4A934213D10C4B81
:1015A000DB690B4A43F00203D361094BDB6903F0AB
:1015B0000203BB60BB68002200211D2000F0D3FDA8
:1015C0001D2000F0ECFD00BF1037BD4680BD00BF00
:1015D000001002400004004080B400AFFEE780B479
:1015E00000AFFEE780B400AFFEE780B400AFFEE7D7
:1015F00080B400AFFEE780B400AF00BFBD4680BC42
:10160000704780B400AF00BFBD4680BC704780B457
:1016100000AF00BFBD4680BC704780B500AF00F092
:10162000ABF800BF80BD80B500AF022000F080FFA6
:1016300000BF80BD80B500AF042000F079FF00BF7F
:1016400080BD80B500AF082000F072FF00BF80BDF4
:1016500080B500AF102000F06BFF00BF80BD80B5EB
:1016600000AF202000F064FF00BF80BD80B500AF58
:10167000024801F0A7FD00BF80BD00BF8800002028
:1016800080B500AF024801F09DFD00BF80BD00BFE6
:10169000D000002080B400AF00BFBD4680BC7047C2
:1016A000FFF7F8FF0B480C490C4A002302E0D4581E
:1016B000C4500433C4188C42F9D3094A094C00239E
:1016C00001E013600432A242FBD302F0CFF8FFF72F
:1016D000F7FC7047000000203C000020143900088F
:1016E0003C00002044010020FEE7000080B500AF70
:1016F000084B1B68074A43F010031360032000F0F7
:1017000027FD0F2000F008F8FFF7C8FE0023184659
:1017100080BD00BF0020024080B582B000AF78607D
:10172000124B1A68124B1B7819464FF47A73B3FBAD
:10173000F1F3B2FBF3F3184600F03FFD0346002B34
:1017400001D001230EE07B680F2B0AD800227968B4
:101750004FF0FF3000F007FD064A7B68136000235E
:1017600000E0012318460837BD4680BD3000002048
:10177000380000203400002080B400AF054B1B78F7
:101780001A46054B1B681344034A136000BFBD464D
:1017900080BC7047380000204001002080B400AFBA
:1017A000024B1B681846BD4680BC704740010020B4
:1017B00080B584B000AF7860FFF7F0FFB8607B6859
:1017C000FB60FB68B3F1FF3F05D00A4B1B781A465C
:1017D000FB681344FB6000BFFFF7E0FF0246BB68F5
:1017E000D31AFA689A42F7D800BF00BF1037BD4637
:1017F00080BD00BF3800002080B586B000AF7860A3
:101800000023FB7500233B610023BB600023FB60CA
:101810007B68002B01D10123BEE07B689B68002B15
:101820007B689B6A002B09D17B680022DA627B68A7
:10183000002283F824207868FFF752FE786800F0D1
:10184000CBFA0346FB757B689B6A03F01003002B01
:1018500040F09980FB7D002B40F095807B689B6A6F
:1018600023F4885323F0020343F002027B689A6258
:101870007B685A687B68DB691A437B681B7B5B006B
:101880001343BA681343BB607B689B68B3F5807FE2
:1018900003D07B689B68012B02D14FF4807300E07A
:1018A00000233A6913433B617B681B7D012B19D1EF
:1018B0007B681B7B002B09D17B689B69013B5A032A
:1018C0003B69134343F400633B610BE07B689B6A15
:1018D00043F020027B689A627B68DB6A43F0010276
:1018E0007B68DA627B681B685B6823F469417B680C
:1018F0001B683A690A435A607B681B689A68284BE0
:1019000013407A681268B9680B4393607B689B68E0
:10191000B3F5807F03D07B689B68012B04D17B6883
:101920001B69013B1B05FB607B681B68DB6A23F4BA
:1019300070017B681B68FA680A43DA627B681B687F
:101940009A68184B1340BA689A420BD17B68002200
:10195000DA627B689B6A23F0030343F001027B6831
:101960009A6218E07B689B6A23F0120343F010022E
:101970007B689A627B68DB6A43F001027B68DA620B
:101980000123FB7507E07B689B6A43F010027B68CC
:101990009A620123FB75FB7D18461837BD4680BD52
:1019A000FDF7E1FFFE0E1FFF80B584B000AF786049
:1019B0000023FB737B6893F82430012B01D10223B1
:1019C00098E07B68012283F82420786800F0AAF967
:1019D0000346FB73FB7B002B40F087807B689B6A90
:1019E00023F4407323F0010343F480727B689A620E
:1019F0007B681B68414A934205D1414B5B6803F405
:101A00007023002B15D17B689B6A23F480127B68BE
:101A10009A627B681B685B6803F48063002B26D0A6
:101A20007B689B6A23F4405343F480527B689A623C
:101A30001DE07B689B6A43F480127B689A627B6836
:101A40001B682F4A934204D07B681B682B4A934241
:101A50000DD12B4B5B6803F48063002B07D07B68B0
:101A60009B6A23F4405343F480527B689A627B68FC
:101A70009B6A03F48053002B06D07B68DB6A23F05B
:101A800006027B68DA6202E07B680022DA627B6829
:101A9000002283F824207B681B686FF002021A6022
:101AA0007B681B689B6803F46023B3F5602F13D138
:101AB0007B681B68114A934205D1114B5B6803F4A4
:101AC0007023002B08D17B681B689A687B681B68B1
:101AD00042F4A0029A600CE07B681B689A687B68FD
:101AE0001B6842F480129A6003E07B68002283F84E
:101AF0002420FB7B18461037BD4680BD00280140DE
:101B00000024014080B483B000AF78607B681B681C
:101B1000DB6C18460C37BD4680BC704780B485B07E
:101B200000AF786039600023FB730023BB607B68E3
:101B300093F82430012B01D10223DCE07B680122E1
:101B400083F824203B685B68062B1CD87B681B68E5
:101B5000596B3B685A6813469B001344053B1F2290
:101B600002FA03F3DB4319403B6818683B685A6884
:101B700013469B001344053B00FA03F27B681B6885
:101B80000A435A633CE03B685B680C2B1CD87B68BB
:101B90001B68196B3B685A6813469B001344233B30
:101BA0001F2202FA03F3DB4319403B6818683B68C5
:101BB0005A6813469B001344233B00FA03F27B68E8
:101BC0001B680A431A631BE07B681B68D96A3B6881
:101BD0005A6813469B001344413B1F2202FA03F349
:101BE000DB4319403B6818683B685A6813469B0002
:101BF0001344413B00FA03F27B681B680A43DA6234
:101C00003B681B68092B1CD97B681B68D9683B683B
:101C10001A6813465B0013441E3B072202FA03F3C3
:101C2000DB4319403B6898683B681A6813465B00C1
:101C300013441E3B00FA03F27B681B680A43DA6018
:101C400019E07B681B6819693B681A6813465B00DA
:101C50001344072202FA03F3DB4319403B689868F8
:101C60003B681A6813465B00134400FA03F27B6872
:101C70001B680A431A613B681B68102B03D03B6842
:101C80001B68112B32D17B681B681D4A934225D1FA
:101C90007B681B689B6803F40003002B26D17B68DC
:101CA0001B689A687B681B6842F400029A603B6874
:101CB0001B68102B1AD1134B1B68134AA2FB03237A
:101CC0009A0C13469B0013445B00BB6002E0BB68A8
:101CD000013BBB60BB68002BF9D107E07B689B6AC6
:101CE00043F020027B689A620123FB737B68002229
:101CF00083F82420FB7B18461437BD4680BC704710
:101D0000002401403000002083DE1B4380B483B0F8
:101D100000AF78607B689B6A18460C37BD4680BC74
:101D20007047000080B584B000AF78600023FB608E
:101D30000023BB607B681B689B6803F00103012BD9
:101D400040D07B681B689A687B681B6842F0010280
:101D50009A601F4B1B681F4AA2FB03239B0CBB60AE
:101D600002E0BB68013BBB60BB68002BF9D1FFF709
:101D700015FDF8601FE0FFF711FD0246FB68D31A5E
:101D8000022B18D97B681B689B6803F00103012BA9
:101D900011D07B689B6A43F010027B689A627B6873
:101DA000DB6A43F001027B68DA627B68002283F819
:101DB0002420012307E07B681B689B6803F0010374
:101DC000012BD8D1002318461037BD4680BD00BF77
:101DD0003000002083DE1B4380B584B000AF786004
:101DE0000023FB607B681B689B6803F00103012BE9
:101DF0002ED17B681B689A687B681B6822F0010201
:101E00009A60FFF7CBFCF8601BE0FFF7C7FC0246C7
:101E1000FB68D31A022B14D97B681B689B6803F0FC
:101E20000103012B0DD17B689B6A43F010027B6894
:101E30009A627B68DB6A43F001027B68DA62012305
:101E400007E07B681B689B6803F00103012BDCD073
:101E5000002318461037BD4680BD000090B587B0FE
:101E600000AF78600023FB750023FB607B6893F86C
:101E70002430012B01D1022397E07B68012283F8F3
:101E800024207868FFF7A8FF0346FB757868FFF702
:101E900049FF0346FB75FB7D002B40F081807B688A
:101EA0009B6A23F4885323F0020343F002027B6809
:101EB0009A62404B1C68022001F004F80346B4FB10
:101EC000F3F35B00FB6002E0FB68013BFB60FB6837
:101ED000002BF9D17B681B689A687B681B6842F00D
:101EE00008029A60FFF75AFC38611BE0FFF756FCC6
:101EF00002463B69D31A0A2B14D97B681B689B687E
:101F000003F00803002B0DD07B689B6A23F01203BB
:101F100043F010027B689A627B68002283F82420D9
:101F2000012342E07B681B689B6803F00803002BD9
:101F3000DCD17B681B689A687B681B6842F00402EE
:101F40009A60FFF72BFC38611BE0FFF727FC024685
:101F50003B69D31A0A2B14D97B681B689B6803F072
:101F60000403002B0DD07B689B6A23F0120343F01F
:101F700010027B689A627B68002283F82420012388
:101F800013E07B681B689B6803F00403002BDCD123
:101F90007B689B6A23F0030343F001027B689A622B
:101FA0007B68002283F82420FB7D18461C37BD4641
:101FB00090BD00BF3000002080B485B000AF7860D5
:101FC0007B6803F00703FB600C4BDB68BB60BA68FF
:101FD0004FF6FF031340BB60FB681A02BB68134354
:101FE00043F0BF6343F40033BB60044ABB68D36073
:101FF00000BF1437BD4680BC704700BF00ED00E055
:1020000080B400AF044BDB681B0A03F007031846DB
:10201000BD4680BC704700BF00ED00E080B483B0D7
:1020200000AF0346FB7197F90730002B0BDBFB7900
:1020300003F01F02064997F907305B09012000FAF7
:1020400002F241F8232000BF0C37BD4680BC704728
:1020500000E100E080B483B000AF03463960FB715B
:1020600097F90730002B0ADB3B68DAB20C4997F985
:1020700007301201D2B20B4483F800230AE03B6818
:10208000DAB20849FB7903F00F03043B1201D2B224
:102090000B441A7600BF0C37BD4680BC704700BFAA
:1020A00000E100E000ED00E080B489B000AFF8602E
:1020B000B9607A60FB6803F00703FB61FB69C3F159
:1020C0000703042B28BF0423BB61FB690433062BE1
:1020D00002D9FB69033B00E000237B614FF0FF3234
:1020E000BB6902FA03F3DA43BB681A407B699A4082
:1020F0004FF0FF317B6901FA03F3D9437B680B4052
:10210000134318462437BD4680BC704780B582B063
:1021100000AF78607B68013BB3F1807F01D301237E
:102120000FE00A4A7B68013B53600F214FF0FF30FC
:10213000FFF790FF054B00229A60044B07221A60BC
:10214000002318460837BD4680BD00BF10E000E000
:1021500080B582B000AF78607868FFF72DFF00BFD0
:102160000837BD4680BD80B586B000AF0346B96074
:102170007A60FB7300237B61FFF742FF78617A6826
:10218000B9687869FFF790FF024697F90F3011465A
:102190001846FFF75FFF00BF1837BD4680BD80B50A
:1021A00082B000AF0346FB7197F907301846FFF77E
:1021B00035FF00BF0837BD4680BD80B582B000AF97
:1021C00078607868FFF7A2FF034618460837BD46D7
:1021D00080BD000080B48BB000AF78603960002310
:1021E0007B6200233B6261E101227B6A02FA03F316
:1021F000FB613B681B68FA691340BB61BA69FB6904
:102200009A4240F050813B685B68974A93425ED0A7
:10221000954A934275D8954A934258D0934A93422F
:102220006FD8934A934252D0914A934269D8914AC7
:1022300093424CD08F4A934263D88F4A934246D000
:102240008D4A93425DD8122B2AD8122B59D801A25D
:1022500052F823F0CF220008A9220008BB22000870
:10226000FD220008032300080323000803230008BD
:1022700003230008032300080323000803230008A6
:102280000323000803230008032300080323000896
:102290000323000803230008B1220008C522000818
:1022A000764A934213D02CE03B68DB683B6229E01E
:1022B0003B68DB6804333B6224E03B68DB6808333F
:1022C0003B621FE03B68DB680C333B621AE03B6813
:1022D0009B68002B02D104233B6213E03B689B68A0
:1022E000012B05D108233B627B68FA691A6109E07A
:1022F00008233B627B68FA695A6103E000233B6272
:1023000000E000BFBB69FF2B01D87B6801E07B6860
:1023100004337B61BB69FF2B02D87B6A9B0002E020
:102320007B6A083B9B003B617B691A680F213B6914
:1023300001FA03F3DB431A40396A3B6901FA03F3FC
:102340001A437B691A603B685B6803F08053002B7B
:1023500000F0A9804A4B9B69494A43F0010393610D
:10236000474B9B6903F00103BB60BB68454A7B6A2E
:102370009B08023352F82330FB607B6A03F00303AF
:102380009B000F2202FA03F3DB43FA681340FB6061
:102390007B683D4A93420DD07B683C4A934207D00C
:1023A0007B683B4A934201D1022304E0032302E00D
:1023B000012300E000237A6A02F0030292009340B6
:1023C000FA681343FB602F497B6A9B080233FA6863
:1023D00041F823203B685B6803F48013002B06D090
:1023E0002C4B9A682B49BB6913438B6006E0294B41
:1023F0009A68BB69DB43274913408B603B685B6885
:1024000003F40013002B06D0224BDA682149BB6984
:102410001343CB6006E01F4BDA68BB69DB431D4901
:102420001340CB603B685B6803F40033002B06D09D
:10243000184B5A681749BB6913434B6006E0154BAC
:102440005A68BB69DB43134913404B603B685B68C8
:1024500003F48033002B1FD00E4B1A680D49BB6963
:1024600013430B601FE000BF00003210000031106A
:1024700000002210000021100000121000001110B6
:10248000001002400000014000080140000C014023
:1024900000100140000401400B4B1A68BB69DB438C
:1024A000094913400B607B6A01337B623B681A6801
:1024B0007B6A22FA03F3002B7FF496AE00BF00BFC5
:1024C0002C37BD4680BC70470004014080B483B007
:1024D00000AF78600B467B8013467B707B78002BC7
:1024E00003D07A887B681A6103E07B881A047B68D2
:1024F0001A6100BF0C37BD4680BC704780B485B000
:1025000000AF78600B467B807B68DB68FB607A8875
:10251000FB6813401A04FB68D9437B880B401A43BD
:102520007B681A6100BF1437BD4680BC704700004D
:1025300080B582B000AF0346FB80084B5A69FB8828
:102540001340002B06D0054AFB885361FB881846D0
:10255000FEF77EFA00BF0837BD4680BD000401408B
:1025600080B586B000AF78607B68002B01D1012375
:1025700072E27B681B6803F00103002B00F0878088
:10258000924B5B6803F00C03042B0CD08F4B5B6801
:1025900003F00C03082B12D18C4B5B6803F48033DF
:1025A000B3F5803F0BD1894B1B6803F40033002B3C
:1025B0006CD07B685B68002B68D101234CE27B68A0
:1025C0005B68B3F5803F06D1804B1B687F4A43F4BC
:1025D000803313602EE07B685B68002B0CD17B4B53
:1025E0001B687A4A23F480331360784B1B68774A60
:1025F00023F4802313601DE07B685B68B3F5A02F94
:102600000CD1724B1B68714A43F4802313606F4BEB
:102610001B686E4A43F4803313600BE06B4B1B68FE
:102620006A4A23F480331360684B1B68674A23F4BB
:10263000802313607B685B68002B13D0FFF7AEF834
:10264000386108E0FFF7AAF802463B69D31A642B09
:1026500001D9032300E25D4B1B6803F40033002B18
:10266000F0D014E0FFF79AF8386108E0FFF796F829
:1026700002463B69D31A642B01D90323ECE1534B87
:102680001B6803F40033002BF0D100E000BF7B682F
:102690001B6803F00203002B63D04C4B5B6803F014
:1026A0000C03002B0BD0494B5B6803F00C03082B89
:1026B0001CD1464B5B6803F48033002B16D1434B8F
:1026C0001B6803F00203002B05D07B681B69012BFC
:1026D00001D00123C0E13D4B1B6823F0F8027B6869
:1026E0005B69DB00394913430B603AE07B681B6987
:1026F000002B20D0364B01221A60FFF74FF83861CB
:1027000008E0FFF74BF802463B69D31A022B01D9C8
:102710000323A1E12D4B1B6803F00203002BF0D033
:102720002A4B1B6823F0F8027B685B69DB002749B2
:1027300013430B6015E0264B00221A60FFF72EF8BA
:10274000386108E0FFF72AF802463B69D31A022BEA
:1027500001D9032380E11D4B1B6803F00203002B0A
:10276000F0D17B681B6803F00803002B3AD07B682C
:102770009B69002B19D0174B01221A60FFF70EF846
:10278000386108E0FFF70AF802463B69D31A022BCA
:1027900001D9032360E10D4B5B6A03F00203002BB8
:1027A000F0D0012000F0BAFA1CE00A4B00221A60B7
:1027B000FEF7F4FF38610FE0FEF7F0FF02463B69D9
:1027C000D31A022B08D9032346E100BF00100240B0
:1027D0000000424280044242924B5B6A03F00203D3
:1027E000002BE9D17B681B6803F00403002B00F089
:1027F000A6800023FB758B4BDB6903F08053002B15
:102800000DD1884BDB69874A43F08053D361854BF8
:10281000DB6903F08053BB60BB680123FB75824B0F
:102820001B6803F48073002B18D17F4B1B687E4A12
:1028300043F480731360FEF7B1FF386108E0FEF7E0
:10284000ADFF02463B69D31A642B01D9032303E190
:10285000754B1B6803F48073002BF0D07B68DB683A
:10286000012B06D16F4B1B6A6E4A43F001031362C2
:102870002DE07B68DB68002B0CD16A4B1B6A694A30
:1028800023F001031362674B1B6A664A23F00403BB
:1028900013621CE07B68DB68052B0CD1614B1B6A63
:1028A000604A43F0040313625E4B1B6A5D4A43F0C7
:1028B000010313620BE05B4B1B6A5A4A23F00103CE
:1028C0001362584B1B6A574A23F0040313627B6858
:1028D000DB68002B15D0FEF761FF38610AE0FEF7D8
:1028E0005DFF02463B69D31A41F28832934201D917
:1028F0000323B1E04B4B1B6A03F00203002BEED025
:1029000014E0FEF74BFF38610AE0FEF747FF02468E
:102910003B69D31A41F28832934201D903239BE0E9
:10292000404B1B6A03F00203002BEED1FB7D012B11
:1029300005D13C4BDB693B4A23F08053D3617B6874
:10294000DB69002B00F08780364B5B6803F00C03DB
:10295000082B61D07B68DB69022B46D1334B002208
:102960001A60FEF71BFF386108E0FEF717FF02460A
:102970003B69D31A022B01D903236DE0294B1B6855
:1029800003F00073002BF0D17B681B6AB3F5803F26
:1029900008D1244B5B6823F400327B689B68214993
:1029A00013434B601F4B5B6823F474127B68196AF6
:1029B0007B685B6A0B431B4913434B601B4B012233
:1029C0001A60FEF7EBFE386108E0FEF7E7FE02460C
:1029D0003B69D31A022B01D903233DE0114B1B683D
:1029E00003F00073002BF0D035E0104B00221A608A
:1029F000FEF7D4FE386108E0FEF7D0FE02463B69E0
:102A0000D31A022B01D9032326E0064B1B6803F0DF
:102A10000073002BF0D11EE07B68DB69012B07D12E
:102A2000012319E0001002400070004060004242A3
:102A30000B4B5B68FB60FB6803F480327B681B6AAE
:102A40009A4206D1FB6803F470127B685B6A9A4273
:102A500001D0012300E0002318461837BD4680BD91
:102A60000010024080B584B000AF786039607B68A8
:102A7000002B01D10123D0E06A4B1B6803F0070350
:102A80003A689A4210D9674B1B6823F007026549E0
:102A90003B6813430B60634B1B6803F007033A6802
:102AA0009A4201D00123B8E07B681B6803F002035F
:102AB000002B20D07B681B6803F00403002B05D09B
:102AC000594B5B68584A43F4E06353607B681B686A
:102AD00003F00803002B05D0534B5B68524A43F4C4
:102AE00060535360504B5B6823F0F0027B689B6837
:102AF0004D4913434B607B681B6803F00103002BB7
:102B000040D07B685B68012B07D1474B1B6803F4FF
:102B10000033002B15D101237FE07B685B68022B1B
:102B200007D1414B1B6803F00073002B09D101232F
:102B300073E03D4B1B6803F00203002B01D101231E
:102B40006BE0394B5B6823F003027B685B683649B6
:102B500013434B60FEF722FEF8600AE0FEF71EFE0C
:102B60000246FB68D31A41F28832934201D903230B
:102B700053E02D4B5B6803F00C027B685B689B00A5
:102B80009A42EBD1274B1B6803F007033A689A423D
:102B900010D2244B1B6823F0070222493B681343E1
:102BA0000B60204B1B6803F007033A689A4201D080
:102BB000012332E07B681B6803F00403002B08D07C
:102BC000194B5B6823F4E0627B68DB6816491343AA
:102BD0004B607B681B6803F00803002B09D0124B85
:102BE0005B6823F460527B681B69DB000E4913436A
:102BF0004B6000F021F802460B4B5B681B0903F0A9
:102C00000F030A49CB5C22FA03F3094A1360094B0C
:102C10001B681846FEF780FD002318461037BD4696
:102C200080BD00BF0020024000100240CC380008E8
:102C3000300000203400002080B487B000AF0023B3
:102C4000FB600023BB6000237B6100237B600023CB
:102C50003B611E4B5B68FB60FB6803F00C03042BBD
:102C600002D0082B03D027E0194B3B6127E0FB681B
:102C70009B0C03F00F03174AD35C7B60FB6803F4E3
:102C80008033002B10D0114B5B685B0C03F0010309
:102C9000114AD35CBB607B680D4A03FB02F2BB6840
:102CA000B2FBF3F37B6104E07B680C4A02FB03F3A5
:102CB0007B617B693B6102E0054B3B6100BF3B6987
:102CC00018461C37BD4680BC704700BF001002404C
:102CD00000127A00E4380008F438000800093D00CA
:102CE00080B400AF024B1B681846BD4680BC7047DD
:102CF0003000002080B500AFFFF7F2FF0246054B21
:102D00005B68DB0A03F007030349CB5C22FA03F399
:102D1000184680BD00100240DC38000880B485B041
:102D200000AF78600A4B1B680A4AA2FB03235B0AC8
:102D30007A6802FB03F3FB6000BFFB685A1EFA606F
:102D4000002BF9D100BF00BF1437BD4680BC7047CF
:102D500030000020D34D621080B586B000AF78609F
:102D600000233B610023FB607B681B6803F00103C9
:102D7000002B7DD00023FB754F4BDB6903F08053A4
:102D8000002B0DD14C4BDB694B4A43F08053D36190
:102D9000494BDB6903F08053BB60BB680123FB75C3
:102DA000464B1B6803F48073002B18D1434B1B6800
:102DB000424A43F480731360FEF7F0FC386108E088
:102DC000FEF7ECFC02463B69D31A642B01D90323BE
:102DD0006DE03A4B1B6803F48073002BF0D0364B48
:102DE0001B6A03F44073FB60FB68002B2ED07B68EA
:102DF0005B6803F44073FA689A4227D02E4B1B6A33
:102E000023F44073FB602E4B01221A602C4B0022EE
:102E10001A60294AFB681362FB6803F00103002B68
:102E200014D0FEF7BBFC38610AE0FEF7B7FC02469F
:102E30003B69D31A41F28832934201D9032336E029
:102E40001D4B1B6A03F00203002BEED01A4B1B6ACA
:102E500023F440727B685B68174913430B62FB7D68
:102E6000012B05D1144BDB69134A23F08053D36146
:102E70007B681B6803F00203002B08D00E4B5B68D5
:102E800023F440427B689B680B4913434B607B688B
:102E90001B6803F01003002B08D0074B5B6823F47A
:102EA00080027B68DB68044913434B6000231846AB
:102EB0001837BD4680BD00BF0010024000700040C2
:102EC0004004424280B588B000AF786000237B6147
:102ED0000023FB6100233B610023FB600023BB61F7
:102EE0007B68102B0AD07B68102B00F28A807B68ED
:102EF000012B45D07B68022B75D082E0464B5B6886
:102F0000FB60454B1B6803F08073002B7BD0FB6894
:102F10009B0C03F00F03414AD35C3B61FB6803F455
:102F20008033002B15D03C4B5B685B0C03F0010336
:102F30003B4AD35C7B61FB6803F48033002B0DD0EC
:102F4000384A7B69B2FBF3F23B6902FB03F3FB6196
:102F500004E03B69344A02FB03F3FB612E4B5B68E0
:102F600003F48003B3F5800F02D1FB69BB614AE033
:102F7000FB695B002D4AA2FB03235B08BB6142E0B7
:102F8000254B1B6AFB60FB6803F44073B3F5807F3D
:102F900008D1FB6803F00203002B03D04FF4004379
:102FA000BB611FE0FB6803F44073B3F5007F09D1F8
:102FB000194B5B6A03F00203002B03D049F6404330
:102FC000BB610FE0FB6803F44073B3F5407F1CD195
:102FD000114B1B6803F40033002B16D04FF224432F
:102FE000BB6112E011E0FFF785FE02460A4B5B6809
:102FF0009B0B03F0030301335B00B2FBF3F3BB61F4
:1030000004E000BF02E000BF00E000BFBB6918465B
:103010002037BD4680BD00BF00100240F8380008D0
:103020000839000800127A0000093D00ABAAAAAADC
:1030300080B582B000AF78607B68002B01D101239E
:1030400041E07B6893F83D30DBB2002B06D17B6812
:10305000002283F83C207868FEF77EFA7B68022223
:1030600083F83D207B681A687B6804331946104654
:1030700000F09CFA7B68012283F846207B680122DD
:1030800083F83E207B68012283F83F207B68012281
:1030900083F840207B68012283F841207B6801226D
:1030A00083F842207B68012283F843207B68012259
:1030B00083F844207B68012283F845207B68012245
:1030C00083F83D20002318460837BD4680BD000028
:1030D00080B485B000AF78607B6893F83D30DBB298
:1030E000012B01D0012335E07B68022283F83D20CB
:1030F0007B681B68DA687B681B6842F00102DA6053
:103100007B681B68164A934209D07B681B68B3F141
:10311000804F04D07B681B68124A934211D17B68B0
:103120001B689B6803F00703FB60FB68062B10D04D
:103130007B681B681A687B681B6842F001021A6092
:1031400007E07B681B681A687B681B6842F0010215
:103150001A60002318461437BD4680BC704700BF74
:10316000002C01400004004080B483B000AF7860C0
:103170007B681B68DA687B681B6822F00102DA60F2
:103180007B681B681A6A41F211131340002B0FD1A0
:103190007B681B681A6A40F244431340002B07D136
:1031A0007B681B681A687B681B6822F001021A6042
:1031B0007B68012283F83D20002318460C37BD466A
:1031C00080BC704780B582B000AF78607B681B68B8
:1031D0001B6903F00203022B22D17B681B68DB68AA
:1031E00003F00203022B1BD17B681B686FF0020205
:1031F0001A617B6801221A777B681B689B6903F060
:103200000303002B03D0786800F0B4F905E0786878
:1032100000F0A7F9786800F0B6F97B6800221A7709
:103220007B681B681B6903F00403042B22D17B68B5
:103230001B68DB6803F00403042B1BD17B681B684D
:103240006FF004021A617B6802221A777B681B68A0
:103250009B6903F44073002B03D0786800F08AF96F
:1032600005E0786800F07DF9786800F08CF97B68FB
:1032700000221A777B681B681B6903F00803082B80
:1032800022D17B681B68DB6803F00803082B1BD185
:103290007B681B686FF008021A617B6804221A774A
:1032A0007B681B68DB6903F00303002B03D078689D
:1032B00000F060F905E0786800F053F9786800F0F4
:1032C00062F97B6800221A777B681B681B6903F030
:1032D0001003102B22D17B681B68DB6803F01003FE
:1032E000102B1BD17B681B686FF010021A617B6882
:1032F00008221A777B681B68DB6903F44073002B94
:1033000003D0786800F036F905E0786800F029F914
:10331000786800F038F97B6800221A777B681B68B0
:103320001B6903F00103012B0ED17B681B68DB686E
:1033300003F00103012B07D17B681B686FF00102CA
:103340001A617868FDF7FCFB7B681B681B6903F05A
:103350008003802B0ED17B681B68DB6803F0800341
:10336000802B07D17B681B686FF080021A61786838
:1033700000F06BFA7B681B681B6903F04003402B6D
:103380000ED17B681B68DB6803F04003402B07D13C
:103390007B681B686FF040021A61786800F0FCF8E7
:1033A0007B681B681B6903F02003202B0ED17B6810
:1033B0001B68DB6803F02003202B07D17B681B68A8
:1033C0006FF020021A61786800F036FA00BF083703
:1033D000BD4680BD80B584B000AF78603960002301
:1033E000FB737B6893F83C30012B01D10223B4E0DE
:1033F0007B68012283F83C207B68022283F83D2011
:103400007B681B689B68BB60BB6823F07703BB606D
:10341000BB6823F47F43BB607B681B68BA689A6013
:103420003B681B68B3F5005F3ED0B3F5005F00F268
:103430008780B3F5805F00F08680B3F5805F7FD82A
:10344000702B1AD0702B7BD8602B50D0602B77D884
:10345000502B3CD0502B73D8402B58D0402B6FD8DA
:10346000302B64D0302B6BD8202B60D0202B67D82A
:10347000002B5CD0102B5AD062E07B6818683B6848
:1034800099683B685A683B68DB6800F05EF97B68C6
:103490001B689B68BB60BB6843F07703BB607B68BD
:1034A0001B68BA689A604FE07B6818683B68996847
:1034B0003B685A683B68DB6800F047F97B681B682B
:1034C0009A687B681B6842F480429A603CE07B68A3
:1034D00018683B6859683B68DB681A4600F0BEF81C
:1034E0007B681B685021184600F015F92CE07B68BA
:1034F00018683B6859683B68DB681A4600F0DCF8DE
:103500007B681B686021184600F005F91CE07B68A9
:1035100018683B6859683B68DB681A4600F09EF8FB
:103520007B681B684021184600F0F5F80CE07B68CA
:103530001A683B681B681946104600F0ECF803E077
:103540000123FB7300E000BF7B68012283F83D206C
:103550007B68002283F83C20FB7B18461037BD4671
:1035600080BD80B483B000AF786000BF0C37BD462B
:1035700080BC704780B483B000AF786000BF0C3768
:10358000BD4680BC704780B483B000AF786000BF98
:103590000C37BD4680BC704780B483B000AF786004
:1035A00000BF0C37BD4680BC7047000080B485B0BA
:1035B00000AF786039607B681B68FB607B68254AD8
:1035C000934207D07B68B3F1804F03D07B68224AD7
:1035D000934208D1FB6823F07003FB603B685B6893
:1035E000FA681343FB607B681A4A934207D07B68F2
:1035F000B3F1804F03D07B68174A934208D1FB6830
:1036000023F44073FB603B68DB68FA681343FB609C
:10361000FB6823F080023B685B691343FB607B68B7
:10362000FA681A603B689A687B68DA623B681A68D5
:103630007B689A627B68074A934203D13B681A69A8
:103640007B681A637B6801225A6100BF1437BD464C
:1036500080BC7047002C01400004004080B487B05B
:1036600000AFF860B9607A60FB681B6A7B61FB6839
:103670001B6A23F00102FB681A62FB689B693B61CD
:103680003B6923F0F0033B617B681B013A691343FC
:103690003B617B6923F00A037B617A69BB68134352
:1036A0007B61FB683A699A61FB687A691A6200BFBC
:1036B0001C37BD4680BC704780B487B000AFF8604F
:1036C000B9607A60FB681B6A7B61FB681B6A23F048
:1036D0001002FB681A62FB689B693B613B6923F43B
:1036E00070433B617B681B033A6913433B617B6911
:1036F00023F0A0037B61BB681B017A6913437B61E4
:10370000FB683A699A61FB687A691A6200BF1C37E4
:10371000BD4680BC704780B485B000AF786039602A
:103720007B689B68FB60FB6823F07003FB603A6872
:10373000FB68134343F00703FB607B68FA689A60F9
:1037400000BF1437BD4680BC704780B487B000AF5F
:10375000F860B9607A603B60FB689B687B617B695D
:1037600023F47F437B613B681A027B681A43BB6882
:1037700013437A6913437B61FB687A699A6000BFDF
:103780001C37BD4680BC704780B485B000AF786000
:1037900039607B6893F83C30012B01D1022341E072
:1037A0007B68012283F83C207B68022283F83D205D
:1037B0007B681B685B68FB607B681B689B68BB6001
:1037C000FB6823F07003FB603B681B68FA681343D7
:1037D000FB607B681B68FA685A607B681B68144A48
:1037E000934209D07B681B68B3F1804F04D07B689B
:1037F0001B68104A93420CD1BB6823F08003BB6066
:103800003B685B68BA681343BB607B681B68BA6837
:103810009A607B68012283F83D207B68002283F850
:103820003C20002318461437BD4680BC704700BFBB
:10383000002C01400004004080B483B000AF7860E9
:1038400000BF0C37BD4680BC704780B483B000AF6A
:10385000786000BF0C37BD4680BC70470346024409
:10386000934200D1704703F8011BF9E770B50026B9
:103870000C4D0D4C641BA410A64209D100F01AF89F
:1038800000260A4D0A4C641BA410A64205D170BD47
:1038900055F8043B98470136EEE755F8043B984746
:1038A0000136F2E70C3900080C3900080C39000821
:1038B00010390008F8B500BFF8BC08BC9E46704738
:0C38C000F8B500BFF8BC08BC9E4670477D
:1038CC0000000000000000000102030406070809C4
:1038DC0000000000010203040203040506070809A6
:1038EC000A0B0C0D0E0F1010010200000203040550
:1038FC00060708090A0B0C0D0E0F10100102000030
:04390C003501000879
:043910001101000899
:10391400320000000000000000000000030000006E
:10392400000000000400000000000000000000008F
:10393400030000000000000003000000010000007C
:0C3944000024F40010000000010000004E
:04000005080016A138
:00000001FF
